:020000040800F2
:10000000402C00202D0200085957000869460008BE
:1000100009570008BD1800086568000800000000C6
:10002000000000000000000000000000D160000897
:10003000B11B000800000000EF5E00081961000815
:10004000470200084702000847020008470200086C
:10005000470200084702000847020008470200085C
:10006000470200084702000847020008470200084C
:10007000470200084702000847020008470200083C
:10008000470200084702000847020008470200082C
:10009000470200084702000847020008B31B000897
:1000A000470200084702000847020008470200080C
:1000B00047020008470200084702000847020008FC
:1000C00047020008470200084702000847020008EC
:1000D00047020008470200084702000801680008BC
:1000E00047020008470200084702000847020008CC
:1000F00047020008470200084702000847020008BC
:1001000047020008470200084702000847020008AB
:1001100031640008496400084702000847020008EB
:100120004702000847020008491900084702000872
:1001300000F002F800F06AF80AA090E8000C82448F
:100140008344AAF10107DA4501D100F05FF8AFF26C
:10015000090EBAE80F0013F0010F18BFFB1A43F0A5
:1001600001031847E4CF000004D000000A444FF018
:10017000000C10F8013B13F0070408BF10F8014B06
:100180001D1108BF10F8015B641E05D010F8016B4B
:10019000641E01F8016BF9D113F0080F1EBF10F8AF
:1001A000014BAD1C0C1B09D16D1E58BF01F801CBD2
:1001B000FAD505E014F8016B01F8016B6D1EF9D555
:1001C0009142D6D37047000000230024002500266A
:1001D000103A28BF78C1FBD8520728BF30C148BFAA
:1001E0000B60704766290BF09481642900F08680CB
:1001F000002070471FB500F0DDFC04000020002146
:1002000009F0DAFFE0601FBD10B510BD00F0D6FDAB
:100210001146FFF7EFFF08F05FF900F0F4FD03B4BB
:10022000FFF7F2FF03BC06F039FC000009488047E5
:1002300009480047FEE7FEE7FEE7FEE7FEE7FEE7C8
:10024000FEE7FEE7FEE7FEE704480549054A064BE0
:100250007047000097610008310100084026002027
:10026000402C00204028002040280020704710B576
:100270004C1084EA530404D54042C1F1000138BF58
:10028000491E1B4204D55242C3F1000338BF5B1E16
:1002900000F078F914F0804F04D04042C1F1000121
:1002A00038BF491E14F0004F04D05242C3F100037E
:1002B00038BF5B1E10BD00000FB4044910B503AA7F
:1002C000029800F065FC10BC5DF814FB780000207B
:1002D0000FB41CB5084B06AA7B44694600900598EC
:1002E00000F03DFC04460020694600F04BFC20462F
:1002F0001CBC5DF814FB0000A90800002DE9F041CA
:100300000646002410687529314616A510D0AFF3B3
:100310000080002802DA404213A507E031688A070E
:1003200001D512A502E0490704D511A5012401E079
:10033000AFF3008000210A2206F1240709E0B0FB98
:10034000F2FCB0FBF2F302FB1C003030785418468C
:10035000491C0028F3D123462A463046BDE8F04127
:1003600000F092B9000000002D0000002B000000FA
:10037000200000002DE9F0474FF0000A89460446AE
:10038000C0F820A02046E1688847002876D02528BC
:1003900006D0D4E901219047206A401C2062F1E791
:1003A000E168204600258847C4F81CA006460027BF
:1003B000C4F818A02A2E09D0304606F068FB38B3DE
:1003C00004EB8708303EC8F8186019E059F8041BA0
:1003D000204604EB87029161E1688847012F0646B9
:1003E00018D1E069002820DA25F020051DE0D8F8B2
:1003F000180000EB800006EB40003038C8F8180009
:100400002046E1688847064606F041FB0028EED109
:10041000012F0AD02E2E08D12046E16888477F1C84
:100420000646022F45F02005C4DBA069002803DA48
:10043000404245F00105A061E80701D025F0100514
:10044000B6B1A6F14100192802D8203645F400655E
:100450004A463146204625604D46FFF7C3FE58B157
:10046000012806D0ED1D25F0070000F1080989E7F5
:1004700004E005F1040985E730468AE7206ABDE813
:10048000F08740EA010310B59B070FD1042A0DD372
:1004900010C808C9121F9C42F8D020BA19BA884265
:1004A00001D9012010BD4FF0FF3010BD1AB1D307A4
:1004B00003D0521C07E0002010BD10F8013B11F8DA
:1004C000014B1B1B07D110F8013B11F8014B1B1B03
:1004D00001D1921EF1D1184610BD02F0FF0343EA8C
:1004E000032242EA024200F002B84FF0000204295F
:1004F000C0F0128010F0030C00F01B80CCF1040C53
:10050000BCF1020F18BF00F8012BA8BF20F8022B86
:10051000A1EB0C0100F00DB85FEAC17C24BF00F82C
:10052000012B00F8012B48BF00F8012B70474FF05A
:10053000000200B5134694469646203922BFA0E833
:100540000C50A0E80C50B1F12001BFF4F7AF09073F
:1005500028BFA0E80C5048BF0CC05DF804EB890030
:1005600028BF40F8042B08BF704748BF20F8022B73
:1005700011F0804F18BF00F8012B7047704770478B
:100580007047704753EA020C00F069802DE9F04B88
:100590004FF00006002B1FBFB3FA83F503FA05F4F2
:1005A00024FA05F65E4012BF1643B2FA82F502FA4B
:1005B00005F4C5F120051EBF22FA05FC44EA0C042F
:1005C000203556EA044C4FEA144418BF641C4FF01F
:1005D00000084FF00009904271EB030C39D3002959
:1005E00019BFB1FA81F701FA07F6B0FA80F700FAFD
:1005F00007F6C7F120071EBF20FA07FC46EA0C06E3
:100600002037B6FBF4FCA7EB0507103F07F01F0BE4
:10061000CBF120060CFA0BFB2CFA06F644BFB346CE
:100620000026202FA4BF5E464FF0000B5BEA060CAD
:1006300008BF4FF0010B19EB0B09ABFB027C48EB39
:100640000608C01B06FB02CC0BFB03CC71EB0C01B4
:10065000C1E70B46024641464846BDE8F08B13B55C
:100660004FF000004FF00001AFF30080BDE81C40E8
:10067000704710B500F0A2FA006810BD10B504462E
:1006800000F09CFA046010BD2DE9F0470D46994634
:100690009246044600F124080168880604D5E06902
:1006A00021F01001216000E00120A84201DD471B7C
:1006B00000E00027A1697A1902EB0900081AA0617D
:1006C0002078C00602D42046AFF30080002608E060
:1006D000D4E901211AF806009047206A401C761CD4
:1006E00020624E45F4DB2078C0060AD52046AFF3E1
:1006F000008006E0D4E9012130209047206A401CA8
:100700002062381EA7F10107F4DC07E0D4E90121DB
:1007100018F805009047206A401C2062281EA5F1A9
:100720000105F3DC2046AFF300802078000602D5F7
:100730000220BDE8F0870120FBE770472DE9FF4F5D
:100740000C461E464FF0FF378BB0D2E90001DDF8B2
:1007500060800A908A46C1F30A5505B93D460021DA
:1007600008464FF00000BAF1000F00F4400005DA2F
:1007700000EB80004FF4400101EA50004FEA90592D
:10078000B9F1010F00DDB9460A9850EA4A000ED0CF
:1007900044F61050A5F2FF3545432F14B8F1000F71
:1007A0001ED07542291E1EDDC9F100021CE0B8F101
:1007B000010F4FF0000001D0302103E0F24305E0CB
:1007C0002154401CB042FBDB304600220021215462
:1007D0000B99C1F80880C1E900200FB0BDE8F08F87
:1007E000BD1B6D1CDEE74A4600DA694206A800F030
:1007F0006FFA06AB93E8070003AB83E807005046A7
:100800000A9900F049FB8DE80700A0F500501F3859
:1008100000900398002D09DD42F21F014A4608446A
:1008200003A90390684600F0A8FD08E0A0F5005079
:100830004A461F3803A90390684600F0B2FD8DE8D0
:1008400007000004000C03D04FF0FF30410800E027
:100850001046B8F1000F03D00022009215461EE0AA
:10086000751E05D400F0AEF9303262556D1EF9D513
:10087000B3460122084302D000227F1C04E0207806
:10088000302801D100227F1E002A099786D01DE062
:10089000112D07DA00F096F9303262556D1C50EADE
:1008A0000102F5D1084302D00098C8B10EE0002142
:1008B000681E05E0235C625C63542254401E491CA0
:1008C0008142F7DBAB46A81B401E0990002004F8CC
:1008D0000B000B98099AC0F80880C0E9002B7CE750
:1008E00011264FF0000859E72DE9F04F88460446DD
:1008F000D21D22F0070191B0D1E90001CDE90A0132
:1009000006F00AF802460B98C00F01D02D2007E030
:100910002068810701D52B2002E0202101EAC000D8
:10092000032A099001D0072A05DB034641462046E9
:1009300000F08EF90BE12078800601D5E06900E037
:100940000620B8F1650F814606D0B8F1660F18D0C1
:10095000B8F1670F70D131E00020B9F1110F0090AC
:1009600001DB112301E009F101030AAA01A90CA886
:10097000FFF7E4FEDDE90C70002609F1010583466E
:1009800047E001204B4600904FF000470AAA01A91A
:100990000CA8FFF7D3FEDDE90DB00C995D460026EB
:1009A00010B909F101000D18B9EB050003D4C0F12D
:1009B000FF3609F10105A5EB09002BE0B9F1010FA4
:1009C00001DA4FF001090020B9F1110F00904846FB
:1009D00001DD112300E003460AAA01A90CA8FFF7D4
:1009E000ADFEDDE90C704D460026834620780007F9
:1009F0000AD4AB4500DA5D4601A8012D04DD41199A
:100A000011F8011C302907D04F4502DA17F1040F05
:100A100004DA012082460FE06D1EEEE7002F02DCB3
:100A2000ED1B3E4403E0781CA84200DD7D1CB81B92
:100A300000F1010A4FF000472078000703D4AA45CF
:100A400001DB4FF0FF3A0021B7F1004F0DF14308F1
:100A50008DF8431024D002202B23002F01DA7F428F
:100A60002D230A21021EA0F1010000DC5FB197FBDB
:100A7000F1FC97FBF1F201FB1C7C17460CF1300CEA
:100A800008F801CDEEE7A8F10100037021880905FF
:100A900001D5452100E06521A0F1010800F8011C05
:100AA00009980FA9A1EB0807FF1D00B1012041190A
:100AB00001EBEA70A1693844081A401EA061207851
:100AC000C00602D42046AFF30080099828B1D4E9CB
:100AD00001219047206A401C20622078C00622D560
:100AE0002046AFF300801EE0002E04DBB34502DD9C
:100AF00001A8805D00E03020D4E901219047206A00
:100B0000401C2062761CAAF101005FEA000A0AD1AB
:100B100000F050F8C0680168405CD4E901219047BA
:100B2000206A401C2062281EA5F10105DCDC07E0DC
:100B3000D4E9012118F8010B9047206A401C20627B
:100B4000381EA7F10107F3DC2046AFF30080032035
:100B500011B043E601694A1C02610878704700B58C
:100B60008FB0CDE901310021059105497944CDE9E6
:100B7000031011466846FFF7FDFB0FB000BD0000F3
:100B8000E5FFFFFF0A6802F8010B0A6070470000EA
:100B9000074B70B50D467B44FFF7E1FF044628463E
:100BA00000F004F910B14FF0FF3070BD204670BD69
:100BB000C372000000487047FC25002000487047C1
:100BC000DC25002030B5B0F10A024FEA900E71F139
:100BD00000034EEA817EB0EB0E0061EB91014FEA1B
:100BE000101E4EEA017E10EB0E0041EB11114FEA90
:100BF000102E4EEA016E10EB0E0041EB11214FEA70
:100C0000104E4EEA014E10EB0E0041EB1141401820
:100C100041F100014FEAD00040EA41704FEAD101B2
:100C200010EB80054FEA810444EA907444EB010420
:100C30006D1944EB0404521BA3414FF0000348BF5D
:100C40000A3200D530BD401C41F1000130BD00002A
:100C50002DE9F0411F46044603260168072A01F4E6
:100C6000006004DB08B116A505E016A503E008B195
:100C700015A500E015A521F010002060A069C01E98
:100C8000A0610FB1401EA0612046AFF300804FB1BC
:100C9000D4E9012138469047206A401C2062C01CDC
:100CA000206206E0206AFAE7D4E9012115F8010B79
:100CB0009047761EF8D22046AFF30080BDE8F08161
:100CC0004E414E006E616E00494E4600696E6600F0
:100CD0002DE9F047814616468AB0334878440DC85E
:100CE0008DE80D0030487844801C03AC0DC884E8C2
:100CF0000D0041F69B300844372190FBF1F290FB48
:100D0000F1F5A5F1800501FB12041B3C02D56442FC
:100D1000012000E00020DFF890A080460027FA4480
:100D2000AAF1BE0A0DE0E00709D03246684607EB9B
:100D300047010AEB810100F034FB8DE807006410E5
:100D40007F1C002CEFD1184F7F44AC3F18E0E80720
:100D500014D007EB04100DF1180A90E80E008AE891
:100D60000E00C068F04201D198190890324606A9D9
:100D700003A800F016FB03AB83E807006D10641CAA
:100D8000002DE4D132466946B8F1000F03A802D025
:100D900000F0F3FA01E000F004FBC9E90001C9F832
:100DA00008200AB0BDE8F0875CC30000007B00F0BB
:100DB0008000704700487047DC2500207546FFF72B
:100DC000F9FFAE4605006946534620F00700854608
:100DD00018B020B5FFF738FABDE820404FF0000604
:100DE0004FF000074FF000084FF0000B21F0070113
:100DF000AC46ACE8C009ACE8C009ACE8C009ACE856
:100E0000C0098D46704710B50446AFF300802046F8
:100E1000BDE81040FFF703BA4FF0013C50F8042B37
:100E200051F8043B9A4221D1A2EB0C03934313EAFD
:100E3000CC1317D150F8042B51F8043B9A4215D12A
:100E4000A2EB0C03934313EACC130BD150F8042B01
:100E500051F8043B9A4209D1A2EB0C03934313EAE5
:100E6000CC13DBD04FF00000704700BFD01A01BA9E
:100E7000B1FA81F101F0180122FA01F0CB40C1F181
:100E80002001DBB2C0B2C01A2CFA01F3D11A91438F
:100E900011EAC311E6D170475FEA400C08BF91F038
:100EA000000F4FEA8C234FEAC12243EA51514FEA27
:100EB0001C5018BF00F5F0404FEA300018BF41F059
:100EC00000415FEA6C5C00F02980BCF1FF3F08BF85
:100ED00040F080407047130C06BF12044FF0100C16
:100EE0004FF0000C130E04BF12020CF1080C130F8C
:100EF00004BF12010CF1040C930F04BF92000CF11B
:100F0000020CD30F04BF52000CF1010C11464FF03C
:100F10000002A0F11F00A0EB0C00704711F0004F81
:100F200008BF704731F000413FF4D5AF0B0C06BF4E
:100F300009044FF0100C4FF0000C0B0E04BF090217
:100F40000CF1080C0B0F04BF09010CF1040C8B0F02
:100F500004BF89000CF1020CCB0F04BF49000CF157
:100F6000010CCCF12003A0EB0C0022FA03F302FAEF
:100F70000CF241EA030100F10100704720F07F4CC0
:100F800080EA030023F07F47ACEB070303F57C53B3
:100F900000F0004003F1FF032DE980494FEA154BB3
:100FA00009B44FEA144325EA0B4E24EA03480FF232
:100FB000042606EB132749083E785FEA320203FB5A
:100FC0000667C7F5000707FB06F64FEA54374FEAF6
:100FD000D64606F1020607FB066CCCF1005C4FEA30
:100FE0001C472CEA074C07FB06F40CFB06F504EB48
:100FF00015464FEA961634BF00204FF000404FEAE6
:10100000D13706FB07FC4FEA1C4C0CFB0BF7D21B3D
:1010100003FB0CF761EB07010CFB0EF7B0EB07408D
:1010200072EB17420CFB08F734BFA2EB0742B2EB9E
:10103000074261EB17414FEA0C444FEA910706FB68
:1010400007FC4FEA1C4C0CFB0BF7B0EBC74072EBF4
:10105000573203FB0CF734BFA2EBC742B2EBC742D7
:1010600061EB57310CFB0EF7B0EBC70072EB577218
:101070000CFB08F734BFA2EBC702B2EBC70261EB6F
:101080005771039F4FEA816141EA921104EBCC044E
:101090004FEAD1374FEA826206FB07FC42EA901220
:1010A0004FEA80604FEA1C4C0CFB0BF7D21B03FB92
:1010B0000CF761EB07010CFB0EF7B0EB074072EB8E
:1010C00017420CFB08F734BFA2EB0742B2EB074212
:1010D00061EB17414FEA8C554FEA910704EB9C24D2
:1010E00006FB07FC4FEA1C4C0CFB0BF7B0EBC740B0
:1010F00072EB573203FB0CF734BFA2EBC742B2EBE3
:10110000C74261EB57310CFB0EF7B0EBC70072EB37
:1011100057720CFB08F734BFA2EBC702B2EBC70251
:1011200061EB577115EB4C254FEA816141EA921151
:101130004FEA82624FEAD13742EA901206FB07FC7F
:1011400044F100044FEA80604FEA1C4C0CFB0BF7A3
:10115000D21B03FB0CF761EB07010CFB0EF7B0EBA6
:10116000074072EB17420CFB08F734BFA2EB0742B3
:10117000B2EB074261EB174115EB1C154FEA8131C9
:1011800041EA92414FEA823242EA90424FEA80308D
:101190004FEA0C7644F1000448EA03434EEA0B4858
:1011A0004FF0000EB2EB080C71EB030724BF624650
:1011B00039464EEB0E0E4FF0000B001852414941DC
:1011C0004BEB0B0BB2EB080C71EB03077BF1000B45
:1011D00024BF624639464EEB0E0E4FF0000B00184E
:1011E000524149414BEB0B0BB2EB080C71EB03077F
:1011F0007BF1000B24BF624639464EEB0E0E51EADE
:10120000020718BF46F0010616EB0E7655F10002F4
:1012100054F1000103D5BDE88901BDE80088BDE8AF
:101220008901BDE80048B619524141EB0101A3F123
:101230000103704780807F7E7D7C7B7A797877762A
:1012400076757473727171706F6E6E6D6C6C6B6AA3
:101250006A69686867666665646463636261616041
:10126000605F5F5E5E5D5D5C5C5B5B5A5A595958BE
:101270005857575656555555545453535252525128
:10128000515050504F4F4F4E4E4D4D4D4C4C4C4B7E
:101290004B4B4A4A4A4949494848484747474746C5
:1012A0004646454545444444444343434342424201
:1012B00042414141002B26D4770021D01CB54FEA92
:1012C000370703B44FF010004FF010014FF000004B
:1012D0000FBCBDE810400BF1010BBBF1010F08BFC3
:1012E0005FEA170722BF12F1010211F101014FF06D
:1012F000004143F1000300F0004043EA0000704762
:10130000F9D35708DAE746EA064613F1400F4FEAE9
:1013100016461FDD13F1200FDFBF16430A460021DA
:1013200020335B42C8D0C3F1200746EA064602FAE2
:1013300007F74FEA164646EA0706C3F1200722FAE6
:1013400003F201FA07F721FA03F14FF0000342EA32
:101350000702B1E746EA020646EA06464FEA1646A3
:1013600046EA0106BCBF46EA0646360C4FF00003CB
:101370004FF000024FF000019EE72DE9C048934670
:1013800030B491E8380007C831EA400C48BF34EA6D
:10139000430C03D5FFF7F2FDFFF78CFFF0BCBDE86F
:1013A00000882DE9C048934630B491E8380007C85A
:1013B00010F0804F08BF13F0804F03D100F005F804
:1013C000FFF778FFF0BCBDE8008820F07F4780EA97
:1013D000030023F07F4C07EB0C03A3F57C5300F0D4
:1013E0000040A3F1FE0392F0000F00F0B38095F0EF
:1013F000000F00F077802DE901494FEA11404FEAD4
:10140000144621EA004800FB06FC24EA064708FBD4
:1014100006F607FB08F800FB07F718EB06484CEB4D
:10142000164C4FEA124B18EB07484FEA15464CEBA7
:10143000174022EA0B4E0BFB06FC25EA06470EFB83
:1014400006F607FB0EFE0BFB07F71EEB064E4CEBFA
:10145000164C4FF000061EEB074E4CEB174B18EBEB
:101460000B0840F1000018EB0E0B58EB000840F1A0
:1014700000008F1A4FF000013CBFC943661B14BF28
:10148000B5EB040C00213CBFC943F61B4FEA1744DF
:101490004EEA8E0E27EA04454FEA1C4704FB07621A
:1014A0002CEA074C05FB07F70CFB05F604FB0CFCCC
:1014B00016EB074642EB174216EB0C4642EB1C427A
:1014C0001BEB060658EB0202414146EA9E0601D597
:1014D000BDE80189B619524141EB0101A3F10103B5
:1014E000BDE801894FEA14454FEA114724EA054651
:1014F00021EA074C05FB07F406FB07F70CFB06F196
:1015000005FB0CFC11EB074144EB17444FEA124773
:1015100011EB0C4144EB1C4422EA074C05FB07F29B
:1015200006FB07F70CFB06F605FB0CFC16EB074663
:1015300042EB174216EB0C4642EB1C456A1854F17D
:10154000000148BF7047B619524141EB0101A3F1B8
:101550000103704795F0000F37D04FEA11424FEA70
:10156000144721EA024624EA074C02FB07F106FB76
:1015700007F70CFB06F402FB0CFC14EB074441EBF1
:1015800017414FEA154714EB0C4441EB1C4125EA87
:10159000074C02FB07F506FB07F70CFB06F602FB00
:1015A0000CFC16EB074645EB174516EB0C4645EBD6
:1015B0001C42121951F1000148BF7047B61952413F
:1015C00041EB0101A3F1010370474FEA14454FEAD3
:1015D000114724EA054621EA074C05FB07F106FB03
:1015E00007F70CFB06F24FF0000605FB0CFC12EBB4
:1015F000074241EB174112EB0C4251EB1C4148BF33
:101600007047921841EB0101A3F1010370470000FC
:1016100070B5044600688168C943C90717D181685D
:1016200021F00101816001F099FC05460AE000BF4C
:1016300001F094FC401B022804D920688068C04354
:10164000C00706D020688068C043C007F0D00020E3
:1016500070BDA06A40F01000A062E06A40F0010096
:10166000E062012070BD0000F8B500260446009637
:1016700000688168C943C9072DD0816841F0010124
:101680008160164816490068B0FBF1F000E0401E8A
:1016900000900028FBD101F061FC054616E000BF78
:1016A00001F05CFC401B022810D920688068C04310
:1016B000C0070BD0A06A40F01000A062E06A40F0C2
:1016C0000100E06284F824600120F8BD2068806891
:1016D000C043C007E4D10020F8BD0000880000200E
:1016E00040420F002DE9F04F3D48C9B0006809F0B5
:1016F00065FB82463B488B46006809F05FFB8146EC
:1017000039480F91006809F059FB07463748884669
:10171000006809F053FB054635480E46006809F09D
:101720004DFB0E9033480C46006809F047FBCDE9AD
:101730000C013148006809F041FBCDE90A012F484E
:10174000006809F03BFBCDE908012D48006809F06D
:1017500035FBCDE906012B48006809F02FFBCDE9E8
:1017600004012948006809F029FBCDE90201274856
:10177000006809F023FBCDE900012548006809F065
:101780001DFB0B460F99CDE916ABCDE914910DF178
:101790003C09024689E8F0011E4918A8FEF798FDA9
:1017A00000281ADDC02800DDC0201B4E002218AB27
:1017B00044F62064371D0EE09D5C214600E0491E82
:1017C000D6F800C05FEA0C6C02D40029F7D101E022
:1017D00001B13D60521C8242EEDB49B0BDE8F08FA2
:1017E00000020020FC010020F8010020F40100208C
:1017F000F0010020380200203402002028020020DE
:1018000024020020140200200C02002048020020C4
:101810004402002000D1000800480040F0B52249F1
:101820000022CC7A8B7A27465B1C641C4D7ADBB293
:10183000E6B22B2812D085B30C7A01F1280C641C77
:10184000E4B20CEB850C0C725CF804CC1CF804C000
:1018500084450CD18B72222B06D01CE06D1C4D727E
:101860000A728B72CE7216E08A72CA7211E00E4B47
:10187000203303EB850353F8043C1B5D834203D004
:10188000012D0BD10D2F09D3CE722C2E03D1CA728C
:101890008A724A720A720120F0BD03E08A72CA722B
:1018A0004A720A720020F7E74401002002494FF40F
:1018B000004008607047000014080140FEE7000087
:1018C0002DE9F0410D4C0A4607460B4E10462168A3
:1018D00009F072FC216B09F09DFA0146084809F0F5
:1018E0006BFC05463146384609F066FC294609F08E
:1018F00091FA2063BDE8F0810AD7A33C6002002082
:1019000048E17A3F2DE9F0410D4C0A4607460B4E5F
:101910001046216809F050FC216E09F07BFA01465F
:10192000084809F049FC05463146384609F044FCB0
:10193000294609F06FFA2066BDE8F0810AD7A33C7A
:101940006002002048E17A3F014800F01DBE00001F
:10195000AC05002030B590F840500124AC40C56B78
:101960006C60046863604368102B036803D099605F
:101970000068C26030BD9A600068C16030BD000080
:10198000F8B5374F002601200096387002466B46A6
:101990007521682006F01AFD32A0FEF78DFC9DF837
:1019A000000068280CD0BFF34F8F37480168374AD2
:1019B00001F4E06111430160BFF34F8F00BFFDE709
:1019C00006F0AAFE002848D1782007F063FB10B982
:1019D00024A0FEF771FC782006F0D0FD10B92CA0F1
:1019E000FEF76AFCC82007F015FB10B932A0FEF71D
:1019F00063FC05F027FE10B939A0FEF75DFC4548F1
:101A0000044606F045FD0546E01C06F041FD45EAAA
:101A1000C005A01D06F03CFD45EA801080B205F02F
:101A2000C1FF10B93CA0FEF747FC40F2731005F06F
:101A3000E1FC10B942A0FEF73FFCC82005F01AFFF8
:101A400010B949A0FEF738FC08F0A8FA012007F009
:101A500007FA10B94DA0FEF72FFC3E70F8BD00004C
:101A6000080000206D70755F7365745F73656E7339
:101A70006F7220636F6D706C657465202E2E2E2E34
:101A80002E2E0D0A000000000CED00E00400FA0507
:101A90006D70755F636F6E6669677572655F6669A5
:101AA000666F20636F6D706C657465202E2E2E2E10
:101AB0002E2E0D0A000000006D70755F7365745F57
:101AC00073616D706C655F7261746520636F6D70BA
:101AD0006C657465202E2E2E2E2E2E0D0A00000011
:101AE000646D705F6C6F61645F6D6F74696F6E5F62
:101AF0006472697665725F6669726D77617265207E
:101B0000636F6D706C657465202E2E2E2E2E2E0D3B
:101B10000A000000F8000020646D705F7365745F58
:101B20006F7269656E746174696F6E20636F6D703A
:101B30006C657465202E2E2E2E2E2E0D0A000000B0
:101B4000646D705F656E61626C655F66656174751A
:101B5000726520636F6D706C657465202E2E2E2E5D
:101B60002E2E0D0A00000000646D705F7365745FB7
:101B70006669666F5F7261746520636F6D706C6516
:101B80007465202E2E2E2E2E2E0D0A006D70755F80
:101B90007365745F646D705F737461746520636FE7
:101BA0006D706C657465202E2E2E2E2E2E0D0A0063
:101BB00070474FF4007001F0C3B872B6FEE7000042
:101BC0000EB50B2801D00F2800D100900120019004
:101BD000072002906946074800F0DCF9054800F04C
:101BE000B7FB0A21034800F015FB024800F050FA49
:101BF00080B20EBD340300202DE9F04100250E46D1
:101C000007462C4608E03846FFF7DAFF0544012076
:101C100005F0B8FB641CE4B2B442F4D3B5FBF6F0B3
:101C200080B2BDE8F08100002DE9FE4FDFF8089298
:101C3000DFF80882DFF808A2DFF808B2824D012839
:101C40007ED04421D02002F010FD04464321D02054
:101C500002F00BFD04EB00207C4C4621E081D020FB
:101C600002F003FD06464521D02002F0FEFC06EB03
:101C7000002060824821D02002F0F7FC0646472170
:101C8000D02002F0F2FC06EB002020823C21D02084
:101C900002F0EBFC06463B21D02002F0E6FC06EB0E
:101CA000002020813E21D02002F0DFFC06463D21AD
:101CB000D02002F0DAFC06EB0020A0804021D020EA
:101CC00002F0D3FC06463F21D02002F0CEFC06EB0A
:101CD000002007B2E780B4F90E60704209F00CFAF8
:101CE000C8F80000B4F9080008F0F1FCDFF86081E2
:101CF000584B424608F064FB08F074FA0290B4F9BD
:101D0000040008F0E4FC4246524B08F059FB08F08E
:101D100069FA0190384608F0DAFC42464D4B08F06B
:101D20004FFB08F05FFA0090304608F0D0FCDFF877
:101D300028814FF066373A46434608F041FB00E001
:101D400016E008F04FFA0646B4F9120008F0BFFC9E
:101D50003A46434608F034FB08F044FA07463F4849
:101D6000DFF8FC800078022818D003283ED052E02B
:101D700004F0BEF83B4C2968C9F80010B4F9000023
:101D800009F0BAF9C8F80000B4F9040009F0B4F990
:101D9000CAF800003448B0F9040047E0DDE900105B
:101DA00086F0004202F084FE09F008F8304E2F4A17
:101DB000334608F005FB00222E4B08F0EFFC08F03C
:101DC00011FA28603A460099029802F09DFF08F047
:101DD000F5FF264A334608F0F3FA0022254B08F0B7
:101DE000DDFC08F0FFF9C8F8000014E0B4F90A00BF
:101DF00009F082F93146FFF763FD80F0004028606A
:101E0000B4F90C0009F078F93946FFF77BFD80F052
:101E10000041C8F800102968C9F80010B4F9100092
:101E200009F06AF9CAF80000B4F9060009F064F98B
:101E3000CBF80000BDE8FE8F6000002064000020A9
:101E40006800002070000020E4000020A4010020B1
:101E50008FC2F5285C1F9A40665E8D40000000200E
:101E6000E0000020EC000020F2000020F1D4C85374
:101E7000FB2109400080664010B50B20FFF7A0FE53
:101E800008F03CFC4FF06632094B08F087FC00225A
:101E9000084B08F083FC0022074B08F07FFC6FF032
:101EA0000B0209F06AFBBDE8104008F0E1BB00003E
:101EB00066660A400000264000005940F8B500253B
:101EC0000446009590F8240001280BD0012084F8E6
:101ED00024002046FFF79CFB2046FFF7C5FB0600C9
:101EE00002D050E00220F8BDA06A20F4885040F0F3
:101EF0000200A062022001F0D3F825490968B1FB75
:101F0000F0F0400000E0401E00900028FBD1206867
:101F1000816841F00801816001F020F8074608E07F
:101F200001F01CF8C01B0A2803D92068806800074C
:101F300015D4206880680007F2D42068816841F0D9
:101F40000401816001F00AF8074612E001F006F88A
:101F5000C01B0A280DD920688068400709D5A06AEF
:101F600020F0020040F01000A06284F8245001200C
:101F7000F8BD206880684007E8D4A06A20F002001D
:101F800040F00100A06284F824503046F8BD000003
:101F900088000020F8B50024009490F824202546FD
:101FA000012A12D0012280F824204A681F23072A20
:101FB0000DD20668776B521E02EB820293409F435C
:101FC0000B6893401F43776319E00220F8BD066851
:101FD0000D2A0AD2376BD21F02EB820293409F4335
:101FE0000B6893401F43376309E0F76A0D3A02EB31
:101FF000820293409F430B6893401F43F7620A6835
:10200000072306680A2A0AD3F7680A3A02EB420253
:1020100093409F438B6893401F43F76008E0376904
:1020200002EB420293409F438B6893401F4337610A
:102030000A68102A01D0112A20D1124B02689A4254
:1020400017D193681B0219D4936843F4000393607B
:102050000968102912D10C490C4A0968B1FBF2F148
:1020600001EB8101490000E0491E00910029FBD1EC
:1020700004E0816A41F020018162012480F824504B
:102080002046F8BD002401408800002040420F0097
:102090000068C06C704700002DE9F04104004FF06B
:1020A000000514D0A06A002628B9E66284F82460EE
:1020B000204600F083F82046FFF7AAFAA16A01F053
:1020C0001001014304D0A06A40F01000A0626BE050
:1020D000A16A21F4885141F00201A16233492368C9
:1020E0008B42E16904D1B1F5402F01D14FF40021B9
:1020F000277B4FF4807C41EA470261680A43A1686C
:10210000614509D0012907D05FF0000194F814E07F
:10211000BEF1010F02D00AE06146F7E7C7B1A76A36
:1021200047F02007A762E76A47F00107E7625F68A8
:1021300027F469470F435F60236899681C4F394053
:1021400011439960A16861450BD0012909D00CE0C9
:10215000DFF860E0A7690EEB47370F4347F40061F3
:10216000E5E7218A0D05A5F580152168CB6A23F4E2
:1021700070032B43CB62216889680F4B1940914251
:1021800008D1E662A16A21F0020141F00101A162D9
:10219000BDE8F081A06A20F0020040F01000A062CB
:1021A000E06A40F00100E0620120F1E7003C0140FC
:1021B000FDF7E1FF00E0FFFFFE0E1FFF00B585B059
:1021C0000021009101910291039100680E4988421B
:1021D00018D10E48816941F480618161816901F4FF
:1021E00080610491816941F01001816180696946D3
:1021F00000F0100004902220009003200190044879
:1022000000F0AAFD05B000BD00280140001002400A
:10221000001001402DE9F84300270D4604460097C1
:1022200000F09CFE804620688168C90508D5A06A38
:1022300040F02000A06284F824700120BDE8F883FB
:102240004168C90503D4C06A10F4700F2AD0022077
:1022500000F026FF3B490968B1FBF0F620680369EE
:1022600039490B424FEA61014FEAA1121FD1C368FD
:102270004FEA611C13EA0C0F19D103690B4225D1F7
:10228000C068104222D1142023E0681C0AD02DB16E
:1022900000F064FEA0EB0800A84203D920680068A3
:1022A000800725D5206800688007EED52DE00369FA
:1022B0000B4202D1C168114206D0026923490A4289
:1022C00006D1C068084203D1542002E0292000E072
:1022D000FC204643009816E0681C11D02DB100F098
:1022E0003DFEA0EB0800A8420AD90098B04207D2F0
:1022F000A06A40F00400A06284F8247003209DE7E7
:102300000098401C0090B042E6D321686FF01200A4
:102310000860A06A40F40070A06220688068C0F382
:10232000424007280CD1207B50B9A06A20F480706D
:10233000A062A06AC00403D4A06A40F00100A062B9
:1023400000207BE788000020244992244992240041
:1023500070B5044690F8240001280DD0012084F8BF
:1023600024002046FFF780F902004FF0000005D05E
:1023700084F82400104670BD022070BDA16A40F2AE
:102380000123994341F48071A1621F4D23681F49C5
:10239000AB4218D10E6816F4702F14D0A66A46F41A
:1023A0008016A6620E68760505D5A66A26F4005644
:1023B00046F48056A662A66AF6040AD5E66A26F0B6
:1023C0000606E66206E0A66A26F48016A6625E6845
:1023D000E9E7E06284F824006FF0020018602068EA
:1023E0008368C3F34243072B05D1A84208D109688B
:1023F00011F4702F04D0816841F480118160B9E735
:10240000816841F4A001F9E700280140042401405B
:1024100010B590F821100022022905D00421816313
:1024200080F82020012010BD01680B6823F00E0306
:102430000B6001680B6823F001030B6090F84030DB
:10244000C46B012101FA03F3636080F8211080F866
:102450002020104610BD00002DE9F05F90F82110FB
:102460000024022903D004218163012485E001684E
:102470000A6822F00E020A6001680A6822F001026E
:102480000A603F4E3E4FB215DFF8F4C0DFF8F0901F
:10249000DFF8ECA0DFF8E8B0DFF8E4E00168783FAF
:1024A00013011502ACF1640CA9F15009AAF13C0A20
:1024B000ABF1280BAEF1140E4FF48018B14227D9BE
:1024C000B9420ED0614512D049451DD0514518D0B2
:1024D000594518D0714501D1424615E0294EB14207
:1024E00001D1012210E0274E1436B14201D1102251
:1024F0000AE0244E2836B14206D0224A3C329142AC
:1025000001D11A4600E02A461E49091F0A602BE045
:10251000B94213D0614517D0494522D051451DD04D
:1025200059451DD0714501D142461AE0B14202D150
:102530004FF0807215E0134EB14201D1012210E03C
:10254000104E1436B14201D110220AE00D4E283649
:10255000B14206D00B4A3C32914201D11A4600E00A
:102560002A46074980394A60012180F8211000215C
:1025700080F82010416B01B188472046BDE8F09FEC
:1025800080000240080402402DE9F05FC16B0A6838
:1025900001680B68046C4FF0040808FA04F8844DD5
:1025A000844E854FDFF814C2DFF81492DFF814A2CE
:1025B000DFF814B2DFF814E218EA020F65D05FEA20
:1025C000437862D50A68920603D40A6822F00402AE
:1025D0000A60DFF8F0814FF48062016808F11408A6
:1025E00013011402414524D9A9420DD0B1420FD0A4
:1025F000B9421AD0614515D0494515D0514501D190
:10260000120312E0594501D104220EE0714501D1B7
:1026100040220AE06D4D1435A94206D06B4A28329B
:10262000914201D11A4600E022466749091F0A601B
:1026300029E0A94213D0B14215D0B94220D061455A
:102640001BD049451BD0514502D14FF4800217E001
:10265000414502D14FF0806212E0594501D1042278
:102660000EE0714501D140220AE0584D1435A942CF
:1026700006D0564A2832914201D11A4600E022463D
:102680004B4908394A60C16A71E04FF0020808FA04
:1026900004F818EA020F70D05FEA83786DD50A68F3
:1026A000920606D40A6822F00A020A60012180F824
:1026B0002110DFF810814FF40072016808F114084E
:1026C00013011402414524D9A9420DD0B1420FD0C3
:1026D000B9421AD0614515D0494515D0514501D1AF
:1026E000120312E0594501D102220EE0714501D1D9
:1026F00020220AE0354D1435A94206D0334A28324B
:10270000914201D11A4600E022462F49091F0A6072
:1027100029E0A94213D0B14215D0B94220D0614579
:102720001BD049451BD0514502D14FF4001217E090
:10273000414502D14FF0007212E0594501D1022209
:102740000EE0714501D120220AE0204D1435A94246
:1027500006D01E4A2832914201D11A4600E0224694
:10276000134908394A60002180F82010816A002945
:102770001CD0BDE8F05F0847FFE70825A5401542DB
:1027800014D01A0712D50A6822F00E020A6090F8D7
:102790004020C36B012101FA02F25A60816380F884
:1027A0002110002180F82010016BE0E7BDE8F09FC8
:1027B000080002401C000240300002404400024079
:1027C000580002406C000240080402401C04024011
:1027D00030B560B11A4B026814219A4209D2194BE4
:1027E0001344B3FBF1F18900016417490AE00120A9
:1027F00030BD134B5B421344B3FBF1F1890001641C
:102800000F490839C163022180F82110136843F68B
:10281000F0718B43F0E901142143D0E902452C43C8
:1028200021430469214344692143846921431943B5
:10283000116000214163012242770177084630BDD3
:1028400008040240F8FFFDBF0000024070B50446D6
:1028500090F82000002501280CD0012084F82000E9
:1028600094F821600020012E06D084F82000022573
:10287000284670BD022070BD022684F82160A06346
:102880002068066826F0010606602046FFF762F819
:10289000E06A00282068016802D041F00E0106E0DD
:1028A00021F0040101602068016841F00A01016023
:1028B0002068016841F001010160D9E72DE9F04F7E
:1028C0008BB0B0F5007F44D1042003F0E9FBF34D59
:1028D0002860082003F0E4FBF14F40421E213860DD
:1028E0000F20FFF789F9EF49EF4C0880A078E8B195
:1028F0000020A070ED480078FFF796F92078401C82
:10290000207002F003FFEA480168B1F57A7F02DA2D
:102910000168491C0160A0780026012808D0E5491B
:102920000868642818DBE448066017E00120E0E747
:10293000FFF7A2FA2063616B491C6163A26B6429F3
:102940001044A06305D190FBF1F1DC480160A6635F
:1029500066630BB0BDE8F08F401C0860286808F083
:10296000CBFBD74908F0CAFA08F028FAD54AD64B6B
:1029700007F014FF012208F000FE4FF08042D34B15
:1029800007F01EFD07F02EFC0546A06708F016FABA
:102990000022CF4B07F002FF4FF0FF3208F0EDFDB1
:1029A00007F020FCCB49DFF83093834608604946A6
:1029B000284608F001FCBC4D8035296808F02AFA49
:1029C00082462860386808F097FBBD4908F096FAFF
:1029D00008F0F4F9BB4ABC4B07F0E0FE012208F016
:1029E000CCFD4FF08042B94B07F0EAFC07F0FAFB50
:1029F0008046E06708F0E2F90022B54B07F0CEFE12
:102A00004FF0FF3208F0B9FD07F0ECFBB349074681
:102A100008604946404608F0CFFB696808F0FAF9BB
:102A2000814668603946584608F0F4F908F0C6F95E
:102A3000AB4AA64B07F0B2FE4FF0FF3208F09DFD07
:102A4000DFF8A0B207468846DBF8000008F0B6F9C8
:102A50003A46434607F0F8FB07F0C4FBCBF800000A
:102A6000A248A1490068009008F048FA08F0A6F9C9
:102A7000944A954B07F092FE07F0B4FB28629D48FC
:102A80009B49006808F03AFA08F098F99A4A9B4B7B
:102A900007F084FE07468846686A08F08FF93A46D0
:102AA000434607F0D1FB07F09DFB804668629448DF
:102AB0000068012768B1934D286850B95046E16C11
:102AC00008F0B2FC60624846216D08F0ADFCA062DF
:102AD0002F60207802287DD1734D267080355046B6
:102AE000A96808F0A1FC61698B4608F007FAC5F8EF
:102AF00008A028614846E96808F096FC594608F0A5
:102B0000FDF9C5F80C9068614FF0FF31404608F0C0
:102B100062FD68626348008808F006FBA16908F05E
:102B200079FC794908F048FB009908F073F96E497F
:102B300008F0E4F908F042F9624A634B07F02EFE10
:102B400007F050FBA0668046E16E08F06DFC594628
:102B500008F0D4F98346606F08F030F94FF0333253
:102B60006A4B07F01BFE82468946584608F026F954
:102B7000674A684B07F012FE52464B4607F064FB6B
:102B800007F030FB2067C4F86C80606702F0E6FD58
:102B90002868029068680390286904906869059025
:102BA000286A0690686A0790A06E0890206F0990C6
:102BB00002A8694605F046FBDFF85C8100984146B3
:102BC00008F0FAFA824620664146019808F0F4FAC5
:102BD000814600E028E060665049286A88421FDC90
:102BE0004F4988421CD2616950468B4608F0E4FA8E
:102BF000296908F00FF98046A8615946484608F04F
:102C0000DBFA696908F006F9E8614146A06F01F056
:102C1000D7FEA862E969E06F01F004FFE86202E014
:102C20006770AE62EE626E623E48007838B3002094
:102C300002F09AF93C4C1C4B6542803322462946EF
:102C4000986A03F04DF9986222462946D86A03F043
:102C500047F90146D86235489A6A026034480160F3
:102C6000104603F037FA3348D0F834013249134A9A
:102C7000C0B2087012680A2A03DA0F7004E06420F8
:102C8000D6E700283FF465AE2C480660001D0660BC
:102C9000001D0660001D06605BE600004C00002081
:102CA000500000201C000020A40100200000002093
:102CB0003400002028000020240000205C000020B8
:102CC00000606A47F1D4C853FB210940E17A743FA0
:102CD00000C05040540200200AD7A33B58020020F5
:102CE0007B14AE475C0200200000344360000020EB
:102CF000333383416400002012E7FAA146DF913F9D
:102D00003000002074000020EA04B43D3333E33F78
:102D10009A9999999999D93F00004040F90F493FF4
:102D2000F90F49BF190000200CE5FFFF54000020F7
:102D3000580000200000224204000020340400401B
:102D4000044910B50A68024202D00860FFF7B6FDD8
:102D500010BD0000140401402DE9F84FDFF8C891C0
:102D60000024A9F1040B23460F2709F1040AABF153
:102D7000040ED1E00125A54006EA0502AA4276D15B
:102D8000DFF8A8C14E68A6EB0C0866452BD00DDC19
:102D9000032E34D005DC36B3012E19D0022E2FD1EC
:102DA0001BE0112E16D0122E2AD119E0B8F5881F7B
:102DB00019D006DCB8F5803F15D0B8F5801F1FD1BB
:102DC00011E0B8F5001F0ED0B8F5041F18D10AE0C5
:102DD000CB6815E0CB681B1D12E0CB6808330FE011
:102DE000CB680C330CE08B682BB1012B4FF0080340
:102DF00003D0456104E0042302E0056100E0002304
:102E0000FF2A01D8064601E000F104064FEA8405D6
:102E100001D9A5F12005D6F8008007FA05FC28EABB
:102E20000C0803FA05F548EA0508C6F800804D6865
:102E3000ED0070D53E4DAE6946F00106AE61AD695C
:102E400024F0030605F0010500953A4D06EB050C4C
:102E5000DCF80850A607360F07FA06F825EA080539
:102E6000DFF8D480404503D14FF0000825E052E060
:102E7000DFF8C880404502D14FF001081DE0DFF8BF
:102E8000C080404502D14FF0020816E0DFF8B48060
:102E9000404502D14FF003080FE0DFF8AC80404519
:102EA00002D14FF0040808E0DFF8A080404502D1CD
:102EB0004FF0050801E04FF0060808FA06F848EA66
:102EC0000508CCF808804D68D9F80060ED024D4641
:102ED00001D5164300E096432E604D68DAF8006095
:102EE000AD02554601D5164300E096432E604D686D
:102EF000DBF80060AD035D4601D5164300E0964364
:102F00002E604D68DEF80060ED03754601D516436E
:102F100000E096432E60641C0A681646E2407FF487
:102F200029AFBDE8F88F000008040140000011102F
:102F3000001002400000014000080140000C014068
:102F4000001001400014014000180140001C014025
:102F50000AB1016170470904FBE70000014880687D
:102F6000704700007C00002002488168027811440C
:102F7000816070477C000020074810B5016841F06F
:102F800010010160032000F079F8032000F006F83A
:102F900000F024F8002010BD0020024070B50D4D57
:102FA00004464FF47A712878B1FBF0F00A490968B9
:102FB000B1FBF0F000F0B2FB48B9102C07D20022B0
:102FC0002146501E00F03AF800206C6070BD0120D0
:102FD00070BD00007C000020880000200E4808B56D
:102FE000816941F001018161816901F00101009174
:102FF000C16941F08051C161C06900F0805000900A
:10300000052000F03BF80548416821F0E06141F0FF
:103010000071416008BD0000001002400000014046
:10302000002809DB00F01F020121914040098000C7
:1030300000F1E020C0F8001170470000F0B40E4B22
:103040001B680C46C3F30223C3F10705042D00D906
:103050000425191D072901D2002300E0DB1E0126EB
:1030600006FA05F1491E214099409E40761E164001
:103070003143F0BC03F077BC0CED00E0064900F0F2
:10308000070208684FF6FF03184040EA0220034A8F
:1030900010430860704700000CED00E00000FA05E6
:1030A00010B501460020284C04292FD00BDC012943
:1030B00030D0022929D100F06BF96168C1F3813168
:1030C000491C49001FE0082920D010291DD1616842
:1030D0002268D20119D51D48C1F38342C903805C1F
:1030E0000AD56168194AC1F34041921E515C184AE1
:1030F000B2FBF1F1484301E01649484361684902D7
:1031000003D440000321B0FBF1F010BDBDE8104036
:1031100000F04EB9226AC2F30121012903D19207BE
:1031200001D5C80310BD022905D1626A920702D5F4
:1031300049F6404010BD0329FCD121688903F9D527
:103140004FF2244010BD00000010024066B6000897
:1031500000127A0000093D002DE9F8430546007889
:10316000354CC00754D0E0690026C00008D4E0699F
:1031700040F08050E061E069012600F0805000904E
:103180002E480168C90512D40168804641F4807157
:103190000160FFF7E3FE074605E000BFFFF7DEFE34
:1031A000C01B642823D8D8F80000C005F6D5206AD3
:1031B00010F4407021D0A98801F4407181421CD0E4
:1031C000206A1F49012220F440700A6000220A6030
:1031D0002062C00711D0FFF7C1FE074641F28838D0
:1031E00008E000BFFFF7BAFEC11B414502D903202A
:1031F000BDE8F883206A8007F4D5206A696820F466
:103200004070084320621EB1E06920F08050E06108
:103210002878800705D56068A96820F440400843F5
:1032200060602878C00605D56068696920F4800070
:10323000084360600020DBE700100240007000409F
:10324000400442422DE9F0470F46050061D0434E4D
:10325000306800F00700B84209D2306820F007005B
:1032600038433060306800F00700B84251D1286818
:103270003B4C810712D5400703D5606840F4E060FD
:1032800060602878000703D5606840F46050606093
:103290006068A96820F0F000084360602878C007E3
:1032A00028D06868012810D02168022810D089072A
:1032B00000292EDA616821F0030101436160FFF704
:1032C0004DFE804641F288390DE021688903EFE721
:1032D0008901EDE7FFF742FEA0EB0801494502D95D
:1032E0000320BDE8F0876068696800F00C00B0EB6F
:1032F000810FEFD1306800F00700B8420BD9306879
:1033000020F0070038433060306800F00700B84212
:1033100001D00120E5E72878400705D56068E96815
:1033200020F4E060084360602878000706D56068F4
:10333000296920F4605040EAC100606000F038F86C
:103340006168084AC1F30311515CC840064908602E
:1033500006480068FFF722FE0020C2E70020024076
:103360000010024076B6000888000020800000208F
:103370000448054900684968044AC1F30221515CC8
:10338000C8407047880000200010024086B6000840
:103390000448054900684968044AC1F3C221515CE8
:1033A000C8407047880000200010024086B6000820
:1033B0000E4A51680E4801F00C03042B11D0082B63
:1033C0000FD10C48C1F38343C903C05C0AD55168CF
:1033D000084AC1F34041921E515C054A5043B0FB7C
:1033E000F1F0704704494843704700000010024064
:1033F00000127A0054B6000800093D002DE9F84F8C
:10340000040070D02078C04DC00749D06868C0F370
:103410008100012807D06868C0F38100022809D123
:103420006868C00306D52868800339D5606800281D
:10343000E7D035E06068B0F5803F0BD010B1B0F553
:10344000A02F11D0286820F480302860286820F44C
:10345000802002E0286840F480302860606890B1E5
:10346000FFF77CFD06460AE0286840F480202860CB
:10347000F0E700BFFFF772FD801B642873D828684F
:103480008003F7D50CE0FFF769FD064605E000BFB5
:10349000FFF764FD801B6428F0D828688003F7D408
:1034A00020789A4E80074FF001094FF0000839D577
:1034B000686810F00C0F07D06868C0F3810002281C
:1034C00009D16868C00306D42868800714D520692C
:1034D000012808D110E02069B0B1C6F80090FFF7CC
:1034E0003DFD074605E00AE1FFF738FDC01B022855
:1034F000C4D828688007F7D52868616920F0F800EB
:1035000040EAC10028600DE0C6F80080FFF726FD04
:10351000074604E0FFF722FDC01B022823D82868D5
:103520008007F7D4207800072CD57948A169D9B154
:10353000C0F80090FFF712FD074604E0FFF70EFD0C
:10354000C01B02280FD8686A8007F7D571484FF46E
:10355000FA510068B0FBF1F0009000BF0098411EE6
:103560000091FAD20EE080E0C0F80080FFF7F6FC90
:10357000074604E0FFF7F2FCC01B022875D8686A12
:103580008007F7D42078400760D5E8690027C0009D
:1035900008D4E86940F08050E861E869012700F04C
:1035A000805000905C480168C90513D401688346C7
:1035B00041F480710160FFF7D1FC824606E000BF54
:1035C000FFF7CCFCA0EB0A0064284ED8DBF8000023
:1035D000C005F5D5E06801280AD008B1052813D048
:1035E000286A20F001002862286A20F0040002E026
:1035F000286A40F001002862E06841F2883B98B1F7
:10360000FFF7ACFC82460BE0286A40F00400286219
:10361000EEE700BFFFF7A2FCA0EB0A0159455AD81C
:10362000286A8007F6D50CE0FFF798FC824605E093
:10363000FFF794FCA0EB0A0159454CD8286A800793
:10364000F6D41FB1E86920F08050E861E06988B3E2
:103650006968C1F38101022944D00228C6F860805C
:1036600004D0FFF77BFC044638E034E0FFF776FC3B
:10367000074604E0FFF772FCC01B02282BD828681D
:103680008001F7D4206AB0F5803F05D16868A16851
:1036900020F4003008436860D4E9080108436968F1
:1036A00021F4741108436860C6F86090FFF756FC77
:1036B000044606E025E000BFFFF750FC001B02288F
:1036C00009D828688001F7D51BE000BFFFF746FC4A
:1036D000001B022802D90320BDE8F88F286880016A
:1036E000F4D40EE00128F7D06868226A00F4803133
:1036F000914204D1616A00F47010884201D0012027
:10370000EAE70020E8E70000001002400000424223
:1037100080044242880000200070004010B5401E26
:10372000B0F1807F01D3012010BD4FF0E024606133
:103730000F21601703F017F90020A0610720206116
:10374000002010BD70B590F83C20012A2CD0012437
:1037500080F83C40022280F83D2003685A689D684A
:1037600022F070060A6832435A60104B02689A428F
:103770000ED00F4B9A420BD0B2F1804F08D00D4BB8
:103780009A4205D00C4B9A4202D00C4B9A4204D17B
:10379000496825F080031943916080F83D4000217D
:1037A00080F83C10084670BD022070BD002C01401E
:1037B000003401400004004000080040000C0040BC
:1037C00010B5040003D094F83D0010B107E00120CB
:1037D00010BD002084F83C00204600F01FF80220B5
:1037E00084F83D00211D206802F0D6FC012084F8F9
:1037F000460084F83E0084F83F0084F8400084F8D6
:10380000410084F8420084F8430084F8440084F8BE
:10381000450084F83D00002010BD000008B5006898
:103820000649884208D10648C16941F00201C161D8
:10383000C06900F00200009008BD000000040040D4
:103840000010024070B5044690F83C0000250128A5
:1038500017D0012684F83C60022084F83D002068DF
:10386000826822F0770222F47F4282600868502842
:1038700038D00DDC20284FD005DC90B3102811D1B2
:103880004AE0022070BD302846D040280AD13BE0F3
:1038900060282FD070280DD0B0F5805F03D0B0F530
:1038A000005F12D0012584F83D60002084F83C00C0
:1038B000284670BDCB68D1E90121206802F0BFFC29
:1038C0002068816841F0770109E0CB68D1E90121E6
:1038D000206802F0B4FC2068816841F48041816076
:1038E000E1E719E0CA684968206802F07DFD5021CF
:1038F000206806E0CA684968206802F086FD6021F9
:10390000206802F0A6FCCEE7CA684968206802F089
:103910006BFD40212068F4E7226801461046F0E77D
:103920002DE9F0410D46040003D094F83D0018B194
:1039300008E00120BDE8F081002084F83C0020462A
:1039400000F040F8022084F83D002068816844F2CD
:10395000070291438160211D206802F01DFC22684E
:1039600090689169166A2B68AF69034340F203308F
:10397000814341EA0721A868EF6908434FF6FC41FB
:103980008843E96840EA0720014328692F6A00015B
:1039900040EA0730084369686D6926F0220646EA66
:1039A0000515294393602268906154F8460B016223
:1039B000012004F81F09E0752076E0762077A075D5
:1039C0000020B7E700B585B0002100910191029178
:1039D00003911A4B02681A48C0219A4213D1C26956
:1039E00042F00402C261C26902F0040204928269D8
:1039F00042F0080282618069009100F008000490A2
:103A00006946104815E0104B9A4214D1826942F47D
:103A100000528261826902F400520492826942F08B
:103A2000100282618069009100F0100004906946E4
:103A30000648FFF791F905B000BD000000080040FE
:103A400000100240000C0140003401400010014011
:103A500070B590F83E60044690F83F5090F84230C0
:103A600090F84320022021B104290ED0012E1BD151
:103A700014E0012E18D1012B16D184F83E0084F8F1
:103A8000420001220021206820E0012D0CD1012AF2
:103A90000AD184F83F0084F8430014E0012D03D1DB
:103AA000012B01D1012A01D0012070BD84F83E0014
:103AB00084F83F0084F8420084F84300012200218A
:103AC000206802F0AFFB01220421206802F0AAFB6B
:103AD0002068016841F001010160002070BD000014
:103AE00010B586B000210091019102910391006808
:103AF0001349884221D11348816941F00401816151
:103B0000816901F004010491816941F0080181613A
:103B10008069022400F008000490C020CDE9000470
:103B2000694609480394FFF717F90320CDE900041B
:103B3000694606480394FFF70FF906B010BD000070
:103B4000000400400010024000080140000C014049
:103B500070B5044690F83C0000260D4601280FD0B1
:103B6000012084F83C006AB1042A1DD0082A2FD015
:103B70000C2A3FD00126002084F83C00304670BD5E
:103B8000022070BD206802F06DFB2068816941F061
:103B9000080181612068816921F004018161206848
:103BA00081692A69114311E0206802F08BFB2068CB
:103BB000816941F4006181612068816921F480613B
:103BC0008161206881692A6941EA02218161D2E725
:103BD000206802F0ADFB2068C16941F00801C161B5
:103BE0002068C16921F00401C1612068C1692A69A6
:103BF000114311E0206802F0CFFB2068C16941F455
:103C00000061C1612068C16921F48061C1612068DF
:103C1000C1692A6941EA0221C161ACE710B504001B
:103C200003D094F83D0010B107E0012010BD002042
:103C300084F83C00204600F01EF8022084F83D0085
:103C4000211D206802F0A8FA012084F8460084F8BB
:103C50003E0084F83F0084F8400084F8410084F876
:103C6000420084F8430084F8440084F8450084F856
:103C70003D00002010BD704710B50446022249B136
:103C800004290ED0082913D094F84100012816D039
:103C9000012010BD94F83E000128F9D184F83E209F
:103CA0000FE094F83F000128F2D184F83F2008E0AB
:103CB00094F840000128EBD184F8402001E084F81A
:103CC00041200122206802F0ADFA13492068134A0E
:103CD000884201D0904203D1436C43F400434364D3
:103CE000206888420DD090420BD0B0F1804F08D0B0
:103CF0000B49884205D00B49884202D00A498842C4
:103D000004D1816801F00701062903D0016841F060
:103D100001010160002010BD002C01400034014071
:103D20000004004000080040000C0040704710B53F
:103D300004460068406994F84110C0F3C01021297E
:103D400011D180B12068143050E8001F21F08001AB
:103D500040E80012002AF5D1A06B08B1FEF758FB2D
:103D6000204602F01DFC2068406994F84210C0F320
:103D70008010222911D180B12068143050E8001F32
:103D800021F0400140E80012002AF5D1E06B08B1B3
:103D9000FEF73EFB204602F0DCFB002010BD704722
:103DA000F8B5016804460868CA684B6910F00F0F3F
:103DB0004FF000055AD003F0010602F49077374324
:103DC00065D0C10705D0D10503D5616C41F0010173
:103DD0006164410705D5D90703D0616C41F0020148
:103DE0006164810705D5D90703D0616C41F00401F6
:103DF0006164010707D502F02001314303D0616CF3
:103E000041F008016164616C00293BD0800604D553
:103E1000900602D5204602F0D1FB20684069616C13
:103E2000C0F3801001F00801014320462BD002F0BE
:103E300090FB20684069400621D52068143050E886
:103E4000001F21F0400140E80012002AF5D1E06B8C
:103E5000A8B16D494163E06BFEF7FEFA002811D06E
:103E6000E06B416B01B0BDE8F040084783060ED51A
:103E700093060CD52046BDE8F84002F09FBB2046D3
:103E8000FFF78DFFF8BDFFF78AFF6564F8BD266B6D
:103E90002023012E7CD1C6067AD5D60678D50868AF
:103EA0004868009048694FF00206400640D5E16B33
:103EB000086840680004000CE8D0A28D8242E5D971
:103EC000E085886920282DD020680C3050E8001F3C
:103ED00021F4807140E80012002AF5D121681431E4
:103EE00051E8000F20F0010041E80002002AF5D15E
:103EF0002068143050E8001F21F0400140E8001213
:103F0000002AF5D184F84230256320680C3050E84F
:103F1000001F21F0100140E80012002AF5D1E06BEB
:103F2000FEF776FA6663A08DE18D401A81B22AE031
:103F3000A08DE18D401A81B2E08D0028A6D0002925
:103F4000A4D022680C3252E8000F20F4907042E8AE
:103F50000007002FF5D12068143050E8002F22F020
:103F6000010240E80027002FF5D184F84230256394
:103F700020680C3050E8002F22F0100240E80023A7
:103F8000002BF5D166632046FFF7D0FEF8BDFFE7B2
:103F900005062BD5150629D594F841002128F5D121
:103FA000A068B0F5805F01D12069B0B1206A411CE2
:103FB0002162216800784860E08C401E0004000CFB
:103FC000E084E3D12068C16821F08001C1602068ED
:103FD000C16841F04001C160D8E7206A0088C0F3A1
:103FE00008004860206A801C2062E5E74006CDD5C5
:103FF0005006CBD5CA68204622F04002CA6084F839
:10400000413000F030FBC1E75564000870B5040092
:1040100004D094F84100002510B106E0012070BDE5
:1040200084F84050204600F023F8242084F8410012
:104030002068C16821F40051C160204602F020FBD5
:104040002068016921F4904101612068416921F0F3
:104050002A0141612068C16841F40051C160656472
:10406000202084F8410084F842006563002070BD80
:10407000F0B585B0002400940194029403940546A1
:10408000D0F800C06748DFF898E106150221032246
:10409000654BC714F4453FD1D0F81CC04CF4002C3C
:1040A000C0F81CC0D0F81CC00CF4002CCDF810C017
:1040B000D0F818C04CF0100CC0F818C08069CDE9D9
:1040C000006100F01000CDE9032069461E46184645
:1040D000FEF742FECDE90074694630460294FEF7D1
:1040E0003BFE534E5148C6E900048020C6E9024019
:1040F00020203461C6E905403046F461FEF768FBD4
:1041000008B1FDF75AFDEE630122114634207562B5
:10411000FEF794FF342031E0464DAC4532D1C569FD
:1041200045F48015C561C56905F480150495856958
:1041300045F010058561856905F0100504958569D0
:1041400045F0200585618069039200F0200004900D
:104150004FF48050CDE9000169461846FEF7FCFD9A
:104160000420CDE90004694633480294FEF7F4FDCB
:10417000012211463520FEF761FF3520FEF750FF82
:1041800005B0F0BD2D4B9C4521D1836943F480439C
:104190008361836903F480430493836943F00403D8
:1041A00083618069264D00F0040004904FF4007094
:1041B000CDE90001039269462846FEF7CDFDCDE921
:1041C0000064694628460294FEF7C6FDD8E71D4BF9
:1041D0009C45D5D1C36943F48023C361C36903F40B
:1041E00080230493836943F0080383618069CDE9E8
:1041F000006100F00800CDE90320134D6946284610
:10420000FEF7AAFDCDE90074694628460294FEF740
:10421000A3FD012211462720FEF710FF2720ADE75E
:10422000004C0040001002400010014030040240E9
:10423000AC0500200050004000140140003801404F
:104240000008014000480040000C014090F8423056
:10425000202B01D00220704721B11AB10023036343
:1042600002F06ABA0120704790F84230202B01D04A
:104270000220704721B11AB10023036302F0A4BAEF
:10428000012070472DE9F14FE149009801260024F3
:104290000068E04D4FF0020A88427FD1AC466F784B
:1042A0009CF802109CF80E009CF803B0DA4A0BEB65
:1042B0004B0C0B180CEB020907F1010CDBB20CF0F4
:1042C000FF0C3A2F6AD2DFE807F01D232B34373B6F
:1042D0003E41444A41444A41444A41444A41444A95
:1042E00041444A41444A41444A41444A41444A4182
:1042F000444A41444A41444A41444A41444A41446F
:104300004A53575BA52848D110706E70A53105E05F
:104310005A2807D1507085F801A05A31A9703DE0A4
:104320003A2801D06C7038E09070032068703A3100
:10433000F4E7D070042001E01071052068700CE0F3
:1043400050710620FAE790710720F7E789F8070017
:1043500001E089F8080085F801C0AB701EE089F81B
:10436000090085F801C0AB700BF10100E87015E0A1
:1043700082F837003820E1E782F838003920DDE79D
:1043800082F839006C70EC70884202D102F0D0FEE5
:1043900003E03A21A048FCF7A8F8AC7000989F49C8
:1043A0000068884279D19E4A9A4928790C3102F1F5
:1043B000320310B101280BD026E00878AA2823D1B7
:1043C0002E7142F8324F5460148118702E701BE029
:1043D00028780F781F54401CC0B228700A2813D3C5
:1043E0000027384613F800C0401C6744FFB2092874
:1043F000F8DB587AB84206D152F8330F286150687A
:104400006861884806702C710878A8616873FDF7A8
:1044100005FA00BBA869844953280BD0732809D03A
:10442000502809D0702807D080480068B0F57A7FFE
:1044300004D010E00E70E0E00C70DEE07C48026812
:104440007C49032A04DA0268521C02600C6002E014
:10445000642202600E60A946A869774F7749784ABE
:10446000784B794D592819D058281AD062281AD07B
:104470000A2827DD5A2839D041284DD045283ED07A
:10448000422840D043283ED044283CD046283FD044
:1044900047283DD048283BD010E0B6E0A7F800A060
:1044A0000CE03E800AE0DFF8A4C1DCF80080B8F13F
:1044B000000F1DD04FF00008CCF800800C80148055
:1044C0001C802C800A282DDA3E8078B1012823D068
:1044D000052814D0022821D003281FD004281DD07D
:1044E00006282DD007282BD0082829D00C8002E0E0
:1044F0004FF00108E0E7148003E02C8012E00C800C
:1045000016801C80F9E70C8014801C802E80D9E76F
:104510000C8014801E80D4E70E80ECE70C801480A1
:104520001C802E8099F80D203D484D467B2A0BD0EB
:104530007D2A10D06979012907D002290DD05CE0CD
:104540000C8014801E80D8E76E71A9794254491CF2
:1045500089F8061051E085F805A0C178502906D0E9
:104560004178232941D0A979E971814628E038486A
:1045700006703AE0A979081A06F0A9F802460B4637
:104580000020344905F01EF8EF79064609EB0700D4
:10459000884610F8010C303806F099F83246434648
:1045A00006F0FCF880460E46E86906F007FC424635
:1045B000334605F049FE05F015FE7F1EE861EF71F8
:1045C000E8790428D6D299F80100303802280CD2B4
:1045D000DFE800F00106E86906F052FD1E4903E03D
:1045E000E86906F04DFD1D4908606C71AC71EC7115
:1045F00032210B48EC61FBF778FFBDE8F84F054925
:1046000001220C311648FFF72FBEBDE8F88F0000DD
:104610000050004044010020E41700200048004002
:10462000090A002038000020390000203400002052
:104630002C00002030000020020000203A00002062
:104640003C0000203E000020400000202000002010
:104650006C00002000002440C4010020C0010020A4
:104660006405002070477047FEE770B50D460446AC
:1046700000F0C0F8204600F08DF800F003F928465D
:1046800000F088F800F0FEF800F0B4F8641CE0B226
:1046900000F080F800F0F6F8002000F045F804463D
:1046A00000F0D0F8204670BD70B50D4C0025C4F860
:1046B000B8510C48016821F070410160016841F077
:1046C00040510160C4F8BC51012004F5DC7402F0D3
:1046D00059FE0120206002F055FE256070BD0000EB
:1046E00000802142040C014070B50D4C0025C4F837
:1046F000B8510C48016821F070410160016841F037
:10470000405101600126C4F8BC61304604F5DC74F8
:1047100002F038FE2660012002F034FE256070BDF4
:1047200000802142040C01402DE9F04781461748E2
:104730000024016821F070410160016841F00041EE
:104740000160134E254627464FF00108C6F8B871A0
:10475000022002F017FEC6F8B8816006040ED6F8F3
:104760003C0108B1641CE4B2022002F00BFE6D1C97
:10477000EDB2082DEAD3B9F1000F02D0FFF794FF94
:1047800001E0FFF7B1FF2046BDE8F087040C0140CF
:10479000008021422DE9F04106461448016821F0CD
:1047A00070410160016841F040510160104C0027E8
:1047B000C4F8B8713D464FF00108F009C4F8BC01D7
:1047C0007006060E012002F0DDFDC4F8B88101205C
:1047D00002F0D8FDC4F8B871012002F0D3FD6D1CC1
:1047E000EDB2082DE9D3BDE8F0810000040C0140D2
:1047F0000080214270B51148016821F070410160CC
:10480000016841F0405101600D4C0120C4F8BC0129
:10481000D4F83C1149B1C4F8B80102F0B3FD002549
:10482000C4F8BC51D4F83C0108B1002070BD01208F
:1048300002F0A8FDC4F8B851012070BD040C01407D
:10484000008021420D4810B5016821F070410160DF
:10485000016841F040510160094C0020C4F8B801E2
:10486000C4F8BC01012004F5DC7402F08BFD0120CA
:1048700020606060BDE8104002F084BD040C01407F
:104880000080214270B513480024016821F0704176
:104890000160016841F0004101600F4D0126C5F83B
:1048A000BC61304602F06EFDC5F8B86107E0641CDB
:1048B000E4B2322C03D9FFF7C5FF002070BD012000
:1048C00002F060FDD5F83C010028F0D1C5F8B80130
:1048D000012070BD040C01400080214210B5144637
:1048E000FFF7C3FE2070012010BDF8B515461C4629
:1048F0000E4607466A46FFF7F1FF01209DF80010BB
:10490000A8400CB1084301E021EA0000C2B28DF8D2
:1049100000203146384600F02BF8F8BD2DE9F84369
:1049200014461D460F4680466A46089EFFF7D6FF8E
:1049300000281BD0611CFF20C4F1080200FA01F11D
:104940002A44521ED0400143C5F108008640F2B20D
:10495000C4F10700C2409DF80000084010438DF8E4
:104960000000C2B23946404600F002F8BDE8F883C4
:1049700007B502AB012200F001F80EBD2DE9F041B0
:104980001E461546884607460024FFF733FF384683
:10499000FFF700FFFFF776FF4046FFF7FBFEFFF74C
:1049A00071FF06E0305DFFF7F5FEFFF76BFF641C5B
:1049B000E4B2AC42F6D3FFF745FF0120BDE8F08139
:1049C00070B506F027FD154C0546E16B06F02CFD91
:1049D0000646206A06F090FB314606F0EDFB0646DF
:1049E000E06906F089FB294606F0E6FB314606F051
:1049F00011FA0646206C06F07FFB314606F00AFAF3
:104A000006F03EFBC4E90F50054861780078084382
:104A100002D0002020646070206C70BDA4010020D2
:104A20000400002070B506F0F5FC154C0546616CDD
:104A300006F0FAFC0646206A06F05EFB314606F0F8
:104A4000BBFB0646E06906F057FB294606F0B4FBBF
:104A5000314606F0DFF90646A06C06F04DFB314604
:104A600006F0D8F906F00CFBC4E91150054861784E
:104A70000078084302D00020A0646070A06C70BD74
:104A8000A40100200400002041060748826942F08A
:104A9000010282610548426822F0E0624260426899
:104AA0000A434260704700000010024000000140CD
:104AB0002DE9F04F04469148ABB011AFB0E8681053
:104AC000299287E868106CC80DAF87E86C0050E940
:104AD0001423CDE9272350E91223CDE9252350F8EB
:104AE000588900F15C031FAF93E80C1093461993AB
:104AF00050F8682B2A926CC887E86C0050E918209F
:104B0000CDE923200020079008900490059006909E
:104B10001B901C9009900A900B9003900C901D9094
:104B20001E901A90E246084606F048F905460E46E1
:104B300084F0004006F042F92A46334602F038FA83
:104B400005F050FB6E4F15900DAC0222CDE90047E9
:104B500007AE012311460296104604F021FB1BAA62
:104B600029A927A88DE8070001231A461946022023
:104B700004F016FB1B99079806F04CF907F108059D
:104B800028601C99089806F045F968600DF10C0939
:104B900005F1280100940223CDE901191A461946AE
:104BA000184604F0FDFA09A91FAACDF80090CDE936
:104BB000012102231A461946184604F0F1FA41462B
:104BC000099806F027F94F4C594620600A9806F0DC
:104BD00021F9606019990B9806F01CF9A060514604
:104BE0000C9806F017F9E0600DF1940A0223CDE964
:104BF00000A40DF1740B1A46CDF808B01946012037
:104C000004F0CEFA0DF1680823A9CDF800B0CDE983
:104C10000118012302221146184604F0C1FA2A990C
:104C20001A9806F0F7F801464FF07E5006F066F944
:104C30001A9023A8CDE900400222012311460296D2
:104C4000104604F0ADFA05F1080B01238DE8400988
:104C50001A461946022004F0A3FACDF800A0CDE9C7
:104C60000158012302221146184604F099FA1A99B4
:104C7000159806F0D9FB1A90CDF800B00123CDE9C4
:104C800001861A461946022004F08AFA0799286814
:104C900006F0C0F838600899686806F0BBF87860DC
:104CA000CDF800B0CDE901A9022301221146184632
:104CB00004F076FA0399119806F0B6FB0390049974
:104CC000129806F0B1FB04900599139806F0ACFB1E
:104CD00005900699149806F0A7FB069005F12800A8
:104CE000CDF800900223CDE901401A461946184636
:104CF00004F056FA38682BB0BDE8F08F98CD000864
:104D0000E4020020BC2500202DE9F04F0446934822
:104D1000ABB000F178030F4693E8681011A929920F
:104D200081E8681000F188050DF134084ECD88E85F
:104D30004E00D0E90812CDE92712D0E90A12CDE9D8
:104D40002512B5E80E108846CDF858C04168924645
:104D50009B462A912ECD1FAE86E82E00D0E90C107E
:104D6000CDE923100020079008900490059006904C
:104D70001B901C9009900A900B9003900C901D9032
:104D80001E901A90384606F019F806460D4684F033
:104D9000004006F013F832462B4602F009F905F000
:104DA00021FA6F4F15900DAC0222CDE9004707AEF6
:104DB000012311460296104604F0F2F91BAA29A914
:104DC00027A88DE8070001231A461946022004F09F
:104DD000E7F91B99079806F01DF807F10805286008
:104DE0001C99089806F016F868600DF10C0905F199
:104DF000200000940223CDE901091A4619461846FD
:104E000004F0CEF909A91FAACDF80090CDE901213F
:104E100002231A461946184604F0C2F94146099879
:104E200005F0F8FF4F4C514620600A9805F0F2FF5C
:104E3000606059460B9805F0EDFFA06016990C983C
:104E400005F0E8FFE0600DF1940A0223CDE900A42B
:104E50000DF1740B1A46CDF808B01946012004F084
:104E60009FF90DF1680823A9CDF800B0CDE901182C
:104E7000012302221146184604F092F92A991A9841
:104E800005F0C8FF01464FF07E5006F037F81A9043
:104E900023A8CDE9004002220123114602961046C4
:104EA00004F07EF905F1080B01238DE840091A464C
:104EB0001946022004F074F9CDF800A0CDE901589C
:104EC000012302221146184604F06AF91A9915982E
:104ED00006F0AAFA1A90CDF800B00123CDE90186B8
:104EE0001A461946022004F05BF90799286805F074
:104EF00091FF38600899686805F08CFF7860CDF8FC
:104F000000B0CDE901A9022301221146184604F0A0
:104F100047F90399119806F087FA039004991298BB
:104F200006F082FA04900599139806F07DFA059030
:104F30000699149806F078FA069005F12001CDF84C
:104F400000900223CDE901411A461946184604F0A3
:104F500027F938682BB0BDE8F08F000060CD00085D
:104F6000FC020020CC250020094A68B109490B68E1
:104F70005B1C0B60834206D1D2F88801C043C2F8A3
:104F800088010020086070470120C2F8880170473E
:104F9000000022428C0000202DE9F05F0024DFF8A1
:104FA0009090DFF890A0DFF89080264625462746AF
:104FB00008EBC400406800EB090353451ED338F8E2
:104FC00034B0ABF10101B1F5E07F17D81849761C78
:104FD0004942F6B2884202DA0146284606E01749FD
:104FE000884206DD164906F01FFA294605F012FF31
:104FF0000546BBF1FA0F01D27F1CFFB2641CE12C05
:10500000D6DB082E12D90F48006801280ED10E48B1
:10501000006858B1082F02D30320BDE8F09FB5F512
:10502000000F01DB0120F8E70220F6E70020F4E79B
:105030000000B8BD010053012018002000009B4370
:105040000000B44320000020240000202DE9F05F80
:105050000025DFF824A1DFF824813A270AF69C59BD
:10506000AB4605EB4500C0EB451100240AEB4106B9
:1050700094FBF7F107FB1141305D3A2972D2DFE86A
:1050800001F01D20282B2E31343740493740493755
:105090004049374049374049374049374049374010
:1050A00049374049374049374049374049374049F7
:1050B000374049374049374049595C6089F800001A
:1050C0003DE089F801003AE04A78104488F8010090
:1050D00048E089F8020032E089F803002FE089F8FF
:1050E00004002CE089F8050029E089F8060026E094
:1050F00098F80220414602EB420303EB0902D0710B
:10510000E2E798F80220414602EB420303EB090272
:105110001072D9E798F8022002EB420C0CEB09035D
:10512000521C587298F80130184488F8010088F829
:10513000022017E089F8370001E089F8380041467D
:10514000C2E789F8390088F802B098F8011088425F
:1051500002D101F0EDFF03E03A210948FBF7E7F93E
:1051600088F801B0641C3A2C82DB6D1C1D2DFFF603
:1051700078AFBDE8F09F0000480A002078010020C9
:10518000E417002030B5114A114C0021506AA4F5F3
:10519000A75500EB4003C3EB401305EB4303655CED
:1051A0005D54491C3A29FADB1C2806D1094B012120
:1051B00051601960084B002119601D21401C90FBB3
:1051C000F1F301FB1300506230BD000078010020B4
:1051D000281F0020240000202800002010B50220F5
:1051E00000F011F8032000F020F8002000F014F87F
:1051F000002000F02FF8002000F026F8BDE8104055
:10520000002000F01BB808B50323009002226B2198
:10521000D020FFF783FB08BD08B5022300900422CD
:105220001C21D020FFF77AFB08BD08B502230090AF
:1052300004221B21D020FFF771FB08BD0346012289
:105240003721D020FFF751BB034605226A21D02029
:10525000FFF74BBB034606226B21D020FFF745BB6F
:105260000C4810B50A490160002181600173017585
:105270004FF46022C261416001210161FCF70CFF23
:1052800008B1FCF79AFCBDE810400248FCF716BED6
:105290000028014034030020094808B5416941F065
:1052A000020141614069002200F0020000901146B5
:1052B0003A20FDF7C3FEBDE808403A20FDF7B0BE36
:1052C000001002402DE9F04F85B0002451480094B1
:1052D000019402940394816941F010018161816914
:1052E00001F010010491816941F02001816181691F
:1052F00001F020010491816941F00401816181691B
:1053000001F004010491816941F008018161806923
:10531000414F00F008000490002244F2103138465A
:10532000FDF716FE012204213846FDF711FEDFF8D5
:10533000ECB04FF44048012241465846FDF708FEC4
:10534000DFF8DCA04FF40049002249465046FDF743
:10535000FFFD002238215846FDF7FAFD7814CDE90B
:105360000004694638460294FDF7F6FC01254FF427
:105370008040CDE9000569463846CDE90245FDF794
:10538000EBFC4FF445700326CDE90005CDE902465C
:1053900069463846FDF7E0FCCDE90054022769462E
:1053A00050460297FDF7D8FCCDF800800396CDE972
:1053B000015469465846FDF7CFFCCDF8009003979D
:1053C000CDE9015469465046FDF7C6FC3820CDE9C9
:1053D000000569465846CDE90245FDF7BDFC2802A7
:1053E0008DE8310069465846FDF7B6FC680200902A
:1053F0000C48CDE9010569465846FDF7ADFC012290
:1054000002211720FDF71AFE1720FDF709FE05B04F
:10541000BDE8F08F0010024000100140000C014078
:10542000000801400000211010B58EB00024079440
:10543000089409940A940B941C2168460C94FBF779
:1054400076F832483049C0E9001441F61F41C0E9FE
:105450000241802104618161FEF7B2F908B1FCF7D5
:10546000ACFB4FF48050079007A92848FEF7EAF9F3
:1054700008B1FCF7A2FB2548FEF7D0FB08B1FCF70A
:105480009CFB0B940BA921480C94FEF75BF908B127
:10549000FCF793FB6020CDE90004029400226946EA
:1054A0001A480494FEF754FB08B1FCF786FB04226B
:1054B00069461648FEF74CFB08B1FCF77EFB082254
:1054C00069461248FEF744FB08B1FCF776FB0C2254
:1054D00069460E48FEF73CFB08B1FCF76EFB002165
:1054E0000A48FEF7C9FB04210848FEF7C5FB08215E
:1054F0000648FEF7C1FB0C210448FEF7BDFB03483C
:10550000FEF7EEFA0EB010BD000400406403002068
:1055100010B58CB024216846FBF709F80024184820
:10552000099416490A94C0E900144FF6FF71C0E9C6
:105530000241046184610320CDE900040120CDE92A
:1055400002040A210491CDE90540CDE907416946ED
:105550000B48FEF7E5F908B1FCF72FFB099409A900
:1055600007480A94FEF7EEF808B1FCF726FB3C2149
:105570000348FEF76DFA0CB010BD000000080040B3
:10558000AC03002010B58CB024216846FAF7CFFF99
:1055900000241848099416490A94C0E900144FF6EB
:1055A000FF71C0E902410461446184610320CDE9D7
:1055B00000040120CDE902040A210491CDE905404F
:1055C000CDE9074169460B48FEF7AAF908B1FCF797
:1055D000F4FA099409A907480A94FEF7B3F808B148
:1055E000FCF7EBFA3C210348FEF732FA0CB010BD91
:1055F00000340140F403002010B5114C0F480C2179
:1056000020604FF4613060600020A060E060C4E979
:105610000401A061E0612046FEF7F8FC08B1FCF748
:10562000CCFA2068C16841F01001C160BDE81040AB
:10563000FF2204490248FEF709BE0000004C00406A
:105640008C040020281F00200E4810B50C49016072
:105650004FF461314160002181600C22C160C0E9DA
:1056600004128161C161FEF7D1FC08B1FCF7A5FA13
:10567000BDE81040012204490248FEF7F5BD0000D4
:1056800000500040D4040020520100200C4810B506
:105690000A4901604FF4E1314160002181600C2230
:1056A000C160C0E904128161C161FEF7AFFC00284E
:1056B00003D0BDE81040FCF780BA10BD00380140AF
:1056C0001C0500200E4810B50C4901604FF4E13173
:1056D0004160002181600C22C160C0E90412816137
:1056E000C161FEF793FC08B1FCF767FABDE8104012
:1056F000012204490248FEF7B7BD000000480040FF
:105700006405002050010020FEE7000000B501F014
:10571000ABF80E4901280CD002280DD0032807D180
:105720000878002804D10A48016869B100210160A5
:1057300000BD0020087000BD0648017811B10021AD
:10574000017000BD0121FBE70121F0E719000020F5
:105750002000002008000020FEE700002DE9F047AF
:105760007948007800287BD178480068784E002579
:10577000A6F18004002873D0E16C306805F054FE77
:105780000746E06A05F0B8FC616A05F043FE394659
:1057900005F0DEFC4AD8E06A05F0AEFC616A05F06F
:1057A00039FB0746E16C306805F03EFE394605F0EE
:1057B000CFFCEFD8216D706805F036FE0746E06A31
:1057C00005F09AFCA16A05F025FE394605F0C0FCFB
:1057D0002CD8E06A05F090FCA16A05F01BFB074697
:1057E000216D706805F020FE394605F0B1FC1DD82A
:1057F000FFF7D2FB574E584F584910B90A88012A73
:1058000015D0574A1288012A2BD0564A564E574F68
:105810001288DFF85C81DFF85C91012A3BD0564AA0
:105820001288012A50D00988012965D06BE0E06C0C
:1058300005F0C4FA32463B4604F006FD04F0D2FC03
:10584000E064206D05F0BAFA32463B4604F0FCFCF9
:1058500004F0C8FC206549486065A065484818E028
:1058600054E0E06C05F0AAFA32463B4605F0BCF97C
:1058700004F0B8FCE064206D05F0A0FA32463B4627
:1058800005F0B2F904F0AEFC20653E486065A06505
:105890003D48E06537E0E06C05F090FA32463B4663
:1058A00005F0A2F904F09EFCE064206D05F086FA94
:1058B00032463B4604F0C8FC04F094FC04F150016D
:1058C000E56581E801031EE0E06C05F077FA3246F9
:1058D0003B4604F0B9FC04F085FCE064206D05F063
:1058E0006DFA32463B4605F07FF904F07BFCC4E9D3
:1058F0001409C4E9168506E028B10128CBD0022896
:10590000E2D0032804D06565A565E565BDE8F087AC
:10591000E06C05F053FA1D4E1D4F32463B4605F034
:1059200063F904F05FFCE064206D05F047FA32464D
:105930003B4605F059F904F055FC206515486065B3
:10594000A0651548A5E700001900002030000020E0
:10595000240200209A9999999999A93F3A00002028
:105960003C0000203E0000207B14AE47E17A943FCB
:105970006F1203BB6F12033B400000206F12033C09
:105980004DF30E3D0AD7A3BB4DF30EBDCDCCCC4C91
:10599000E17AA43F6F1283BB4DF38EBD10B400219A
:1059A000084B0A465FF0000003EBC004401CC0B285
:1059B00062548028F8D3491CC9B20829F2D310BC1C
:1059C00000F09CB8F005002010B57F2816D83F29BC
:1059D00014D80723A3EBD10301F00701C1F1070499
:1059E0000121A140064CDBB204EBC000002AC25CDE
:1059F000C9B201D00A4300E08A43C25410BD00007E
:105A0000F005002010B50220FFF73EF80120FFF757
:105A10003BF8394C0020C4F89001642004F5C874A8
:105A200001F096FC012020600021AE2000F030F94A
:105A30000021D52000F02CF90021502000F028F999
:105A40000021A82000F024F900213F2000F020F9D7
:105A50000021D32000F01CF90021084600F018F9BD
:105A60000021402000F014F900218D2000F010F9F1
:105A70000021142000F00CF90021202000F008F98A
:105A80000021022000F004F90021A12000F000F91B
:105A90000021C02000F0FCF80021DA2000F0F8F826
:105AA0000021122000F0F4F80021812000F0F0F82D
:105AB0000021EF2000F0ECF80021D92000F0E8F8F8
:105AC0000021F12000F0E4F80021DB2000F0E0F8F4
:105AD0000021302000F0DCF80021A42000F0D8F8EC
